{
  "address": "0x85496d9027534acC6d08724Ecefa75DDafC76D5b",
  "abi": [
    {
      "anonymous": false,
      "inputs": [
        {
          "indexed": false,
          "internalType": "bytes32",
          "name": "eventID",
          "type": "bytes32"
        },
        {
          "indexed": false,
          "internalType": "address",
          "name": "attendeeAddress",
          "type": "address"
        }
      ],
      "name": "ConfirmedAttendee",
      "type": "event"
    },
    {
      "anonymous": false,
      "inputs": [
        {
          "indexed": false,
          "internalType": "bytes32",
          "name": "eventID",
          "type": "bytes32"
        }
      ],
      "name": "DepositsPaidOut",
      "type": "event"
    },
    {
      "anonymous": false,
      "inputs": [
        {
          "indexed": false,
          "internalType": "bytes32",
          "name": "eventID",
          "type": "bytes32"
        },
        {
          "indexed": false,
          "internalType": "address",
          "name": "creatorAddress",
          "type": "address"
        },
        {
          "indexed": false,
          "internalType": "uint256",
          "name": "eventTimestamp",
          "type": "uint256"
        },
        {
          "indexed": false,
          "internalType": "uint256",
          "name": "maxCapacity",
          "type": "uint256"
        },
        {
          "indexed": false,
          "internalType": "uint256",
          "name": "deposit",
          "type": "uint256"
        },
        {
          "indexed": false,
          "internalType": "string",
          "name": "eventDataCID",
          "type": "string"
        }
      ],
      "name": "NewEventCreated",
      "type": "event"
    },
    {
      "anonymous": false,
      "inputs": [
        {
          "indexed": false,
          "internalType": "bytes32",
          "name": "eventID",
          "type": "bytes32"
        },
        {
          "indexed": false,
          "internalType": "address",
          "name": "attendeeAddress",
          "type": "address"
        }
      ],
      "name": "NewRSVP",
      "type": "event"
    },
    {
      "inputs": [
        {
          "internalType": "bytes32",
          "name": "eventId",
          "type": "bytes32"
        }
      ],
      "name": "confirmAllAttendees",
      "outputs": [],
      "stateMutability": "nonpayable",
      "type": "function"
    },
    {
      "inputs": [
        {
          "internalType": "bytes32",
          "name": "eventId",
          "type": "bytes32"
        },
        {
          "internalType": "address",
          "name": "attendee",
          "type": "address"
        }
      ],
      "name": "confirmAttendee",
      "outputs": [],
      "stateMutability": "nonpayable",
      "type": "function"
    },
    {
      "inputs": [
        {
          "internalType": "uint256",
          "name": "eventTimestamp",
          "type": "uint256"
        },
        {
          "internalType": "uint256",
          "name": "deposit",
          "type": "uint256"
        },
        {
          "internalType": "uint256",
          "name": "maxCapacity",
          "type": "uint256"
        },
        {
          "internalType": "string",
          "name": "eventDataCID",
          "type": "string"
        }
      ],
      "name": "createNewEvent",
      "outputs": [],
      "stateMutability": "nonpayable",
      "type": "function"
    },
    {
      "inputs": [
        {
          "internalType": "bytes32",
          "name": "eventId",
          "type": "bytes32"
        }
      ],
      "name": "createNewRSVP",
      "outputs": [],
      "stateMutability": "payable",
      "type": "function"
    },
    {
      "inputs": [
        {
          "internalType": "bytes32",
          "name": "",
          "type": "bytes32"
        }
      ],
      "name": "idToEvent",
      "outputs": [
        {
          "internalType": "bytes32",
          "name": "eventId",
          "type": "bytes32"
        },
        {
          "internalType": "string",
          "name": "eventDataCID",
          "type": "string"
        },
        {
          "internalType": "address",
          "name": "eventOwner",
          "type": "address"
        },
        {
          "internalType": "uint256",
          "name": "eventTimestamp",
          "type": "uint256"
        },
        {
          "internalType": "uint256",
          "name": "deposit",
          "type": "uint256"
        },
        {
          "internalType": "uint256",
          "name": "maxCapacity",
          "type": "uint256"
        },
        {
          "internalType": "bool",
          "name": "paidOut",
          "type": "bool"
        }
      ],
      "stateMutability": "view",
      "type": "function"
    },
    {
      "inputs": [
        {
          "internalType": "bytes32",
          "name": "eventId",
          "type": "bytes32"
        }
      ],
      "name": "withdrawUnclaimedDeposits",
      "outputs": [],
      "stateMutability": "nonpayable",
      "type": "function"
    }
  ],
  "transactionHash": "0x9ebd35301bd94d2f04e099fe2d2ddab1e569f3a7d6778b4441da1c345429580c",
  "args": [],
  "numDeployments": 1,
  "solcInputHash": "5ae146c7197423ec6b9ed7c9c92768d0",
  "bytecode": "0x608060405234801561001057600080fd5b5061209f806100206000396000f3fe6080604052600436106100545760003560e01c806292098c1461005957806317f0165a146100825780636dcdf2cd1461009e57806379747571146100c7578063909ef021146100f0578063acdbe01214610133575b600080fd5b34801561006557600080fd5b50610080600480360381019061007b91906114e8565b61015c565b005b61009c60048036038101906100979190611483565b6103d0565b005b3480156100aa57600080fd5b506100c560048036038101906100c091906114ac565b610663565b005b3480156100d357600080fd5b506100ee60048036038101906100e99190611483565b610bd4565b005b3480156100fc57600080fd5b5061011760048036038101906101129190611483565b610e7f565b60405161012a9796959493929190611944565b60405180910390f35b34801561013f57600080fd5b5061015a60048036038101906101559190611483565b610f76565b005b60003330878787604051602001610177959493929190611822565b604051602081830303815290604052805190602001209050600080600083815260200190815260200160002060030154146101e7576040517f08c379a00000000000000000000000000000000000000000000000000000000081526004016101de906119da565b60405180910390fd5b60608060405180610120016040528084815260200186868080601f016020809104026020016040519081016040528093929190818152602001838380828437600081840152601f19601f8201169050808301925050505050505081526020013373ffffffffffffffffffffffffffffffffffffffff168152602001898152602001888152602001878152602001838152602001828152602001600015158152506000808581526020019081526020016000206000820151816000015560208201518160010190805190602001906102bf9291906112cd565b5060408201518160020160006101000a81548173ffffffffffffffffffffffffffffffffffffffff021916908373ffffffffffffffffffffffffffffffffffffffff160217905550606082015181600301556080820151816004015560a0820151816005015560c0820151816006019080519060200190610341929190611353565b5060e082015181600701908051906020019061035e929190611353565b506101008201518160080160006101000a81548160ff0219169083151502179055509050507f2553138c3f9c9008f266dbdbe9fc64f5b71e098d06ef714a190a65a8b9fc6bf383338a898b8a8a6040516103be97969594939291906118da565b60405180910390a15050505050505050565b600080600083815260200190815260200160002090508060040154341461042c576040517f08c379a000000000000000000000000000000000000000000000000000000000815260040161042390611a9a565b60405180910390fd5b8060030154421115610473576040517f08c379a000000000000000000000000000000000000000000000000000000000815260040161046a90611a3a565b60405180910390fd5b80600501548160060180549050106104c0576040517f08c379a00000000000000000000000000000000000000000000000000000000081526004016104b790611a7a565b60405180910390fd5b60005b81600601805490508160ff1610156105c0573373ffffffffffffffffffffffffffffffffffffffff16826006018260ff168154811061052b577f4e487b7100000000000000000000000000000000000000000000000000000000600052603260045260246000fd5b9060005260206000200160009054906101000a900473ffffffffffffffffffffffffffffffffffffffff1673ffffffffffffffffffffffffffffffffffffffff1614156105ad576040517f08c379a00000000000000000000000000000000000000000000000000000000081526004016105a490611a5a565b60405180910390fd5b80806105b890611d38565b9150506104c3565b5080600601339080600181540180825580915050600190039060005260206000200160009091909190916101000a81548173ffffffffffffffffffffffffffffffffffffffff021916908373ffffffffffffffffffffffffffffffffffffffff1602179055507fb79f4240bbdd272d98e02a5db7f0cf156e5fc000961c517670a26eeeec63ed9082336040516106579291906118b1565b60405180910390a15050565b600080600084815260200190815260200160002090508060020160009054906101000a900473ffffffffffffffffffffffffffffffffffffffff1673ffffffffffffffffffffffffffffffffffffffff163373ffffffffffffffffffffffffffffffffffffffff161461070b576040517f08c379a000000000000000000000000000000000000000000000000000000000815260040161070290611b1a565b60405180910390fd5b600080600090505b82600601805490508160ff161015610842578373ffffffffffffffffffffffffffffffffffffffff16836006018260ff168154811061077b577f4e487b7100000000000000000000000000000000000000000000000000000000600052603260045260246000fd5b9060005260206000200160009054906101000a900473ffffffffffffffffffffffffffffffffffffffff1673ffffffffffffffffffffffffffffffffffffffff16141561082f57826006018160ff1681548110610801577f4e487b7100000000000000000000000000000000000000000000000000000000600052603260045260246000fd5b9060005260206000200160009054906101000a900473ffffffffffffffffffffffffffffffffffffffff1691505b808061083a90611d38565b915050610713565b508273ffffffffffffffffffffffffffffffffffffffff168173ffffffffffffffffffffffffffffffffffffffff16146108b1576040517f08c379a00000000000000000000000000000000000000000000000000000000081526004016108a890611ada565b60405180910390fd5b60005b82600701805490508160ff1610156109b1578373ffffffffffffffffffffffffffffffffffffffff16836007018260ff168154811061091c577f4e487b7100000000000000000000000000000000000000000000000000000000600052603260045260246000fd5b9060005260206000200160009054906101000a900473ffffffffffffffffffffffffffffffffffffffff1673ffffffffffffffffffffffffffffffffffffffff16141561099e576040517f08c379a0000000000000000000000000000000000000000000000000000000008152600401610995906119ba565b60405180910390fd5b80806109a990611d38565b9150506108b4565b50600015158260080160009054906101000a900460ff16151514610a0a576040517f08c379a0000000000000000000000000000000000000000000000000000000008152600401610a01906119fa565b60405180910390fd5b81600701839080600181540180825580915050600190039060005260206000200160009091909190916101000a81548173ffffffffffffffffffffffffffffffffffffffff021916908373ffffffffffffffffffffffffffffffffffffffff16021790555060008373ffffffffffffffffffffffffffffffffffffffff168360040154604051610a9990611881565b60006040518083038185875af1925050503d8060008114610ad6576040519150601f19603f3d011682016040523d82523d6000602084013e610adb565b606091505b5050905080610b545782600701805480610b1e577f4e487b7100000000000000000000000000000000000000000000000000000000600052603160045260246000fd5b6001900381819060005260206000200160006101000a81549073ffffffffffffffffffffffffffffffffffffffff021916905590555b80610b94576040517f08c379a0000000000000000000000000000000000000000000000000000000008152600401610b8b90611a1a565b60405180910390fd5b7ff8d1583a733d83bdd3ef5464129d0a95a36d62b382d31c6d0467a61f4264381b8585604051610bc59291906118b1565b60405180910390a15050505050565b600080600083815260200190815260200160002090508060080160009054906101000a900460ff1615610c3c576040517f08c379a0000000000000000000000000000000000000000000000000000000008152600401610c3390611aba565b60405180910390fd5b62093a808160030154610c4f9190611b81565b421015610c91576040517f08c379a0000000000000000000000000000000000000000000000000000000008152600401610c8890611b3a565b60405180910390fd5b8060020160009054906101000a900473ffffffffffffffffffffffffffffffffffffffff1673ffffffffffffffffffffffffffffffffffffffff163373ffffffffffffffffffffffffffffffffffffffff1614610d23576040517f08c379a0000000000000000000000000000000000000000000000000000000008152600401610d1a90611afa565b60405180910390fd5b600081600701805490508260060180549050610d3f9190611c31565b90506000826004015482610d539190611bd7565b905060018360080160006101000a81548160ff02191690831515021790555060003373ffffffffffffffffffffffffffffffffffffffff1682604051610d9890611881565b60006040518083038185875af1925050503d8060008114610dd5576040519150601f19603f3d011682016040523d82523d6000602084013e610dda565b606091505b5050905080610e015760008460080160006101000a81548160ff0219169083151502179055505b80610e41576040517f08c379a0000000000000000000000000000000000000000000000000000000008152600401610e3890611a1a565b60405180910390fd5b7f393073ea1365f611c3d2f240c992960d2b99dc81715555d3fc40fc55ba80af9c85604051610e709190611896565b60405180910390a15050505050565b6000602052806000526040600020600091509050806000015490806001018054610ea890611d06565b80601f0160208091040260200160405190810160405280929190818152602001828054610ed490611d06565b8015610f215780601f10610ef657610100808354040283529160200191610f21565b820191906000526020600020905b815481529060010190602001808311610f0457829003601f168201915b5050505050908060020160009054906101000a900473ffffffffffffffffffffffffffffffffffffffff16908060030154908060040154908060050154908060080160009054906101000a900460ff16905087565b60008060008381526020019081526020016000206040518061012001604052908160008201548152602001600182018054610fb090611d06565b80601f0160208091040260200160405190810160405280929190818152602001828054610fdc90611d06565b80156110295780601f10610ffe57610100808354040283529160200191611029565b820191906000526020600020905b81548152906001019060200180831161100c57829003601f168201915b505050505081526020016002820160009054906101000a900473ffffffffffffffffffffffffffffffffffffffff1673ffffffffffffffffffffffffffffffffffffffff1673ffffffffffffffffffffffffffffffffffffffff1681526020016003820154815260200160048201548152602001600582015481526020016006820180548060200260200160405190810160405280929190818152602001828054801561112b57602002820191906000526020600020905b8160009054906101000a900473ffffffffffffffffffffffffffffffffffffffff1673ffffffffffffffffffffffffffffffffffffffff16815260200190600101908083116110e1575b50505050508152602001600782018054806020026020016040519081016040528092919081815260200182805480156111b957602002820191906000526020600020905b8160009054906101000a900473ffffffffffffffffffffffffffffffffffffffff1673ffffffffffffffffffffffffffffffffffffffff168152602001906001019080831161116f575b505050505081526020016008820160009054906101000a900460ff1615151515815250509050806040015173ffffffffffffffffffffffffffffffffffffffff163373ffffffffffffffffffffffffffffffffffffffff1614611251576040517f08c379a000000000000000000000000000000000000000000000000000000000815260040161124890611b1a565b60405180910390fd5b60005b8160c00151518160ff1610156112c8576112b5838360c001518360ff16815181106112a8577f4e487b7100000000000000000000000000000000000000000000000000000000600052603260045260246000fd5b6020026020010151610663565b80806112c090611d38565b915050611254565b505050565b8280546112d990611d06565b90600052602060002090601f0160209004810192826112fb5760008555611342565b82601f1061131457805160ff1916838001178555611342565b82800160010185558215611342579182015b82811115611341578251825591602001919060010190611326565b5b50905061134f91906113dd565b5090565b8280548282559060005260206000209081019282156113cc579160200282015b828111156113cb5782518260006101000a81548173ffffffffffffffffffffffffffffffffffffffff021916908373ffffffffffffffffffffffffffffffffffffffff16021790555091602001919060010190611373565b5b5090506113d991906113dd565b5090565b5b808211156113f65760008160009055506001016113de565b5090565b60008135905061140981612024565b92915050565b60008135905061141e8161203b565b92915050565b60008083601f84011261143657600080fd5b8235905067ffffffffffffffff81111561144f57600080fd5b60208301915083600182028301111561146757600080fd5b9250929050565b60008135905061147d81612052565b92915050565b60006020828403121561149557600080fd5b60006114a38482850161140f565b91505092915050565b600080604083850312156114bf57600080fd5b60006114cd8582860161140f565b92505060206114de858286016113fa565b9150509250929050565b60008060008060006080868803121561150057600080fd5b600061150e8882890161146e565b955050602061151f8882890161146e565b94505060406115308882890161146e565b935050606086013567ffffffffffffffff81111561154d57600080fd5b61155988828901611424565b92509250509295509295909350565b61157181611c65565b82525050565b61158861158382611c65565b611d62565b82525050565b61159781611c77565b82525050565b6115a681611c83565b82525050565b60006115b88385611b70565b93506115c5838584611cc4565b6115ce83611dee565b840190509392505050565b60006115e482611b5a565b6115ee8185611b70565b93506115fe818560208601611cd3565b61160781611dee565b840191505092915050565b600061161f600f83611b70565b915061162a82611e0c565b602082019050919050565b6000611642601283611b70565b915061164d82611e35565b602082019050919050565b6000611665601083611b70565b915061167082611e5e565b602082019050919050565b6000611688601483611b70565b915061169382611e87565b602082019050919050565b60006116ab601083611b70565b91506116b682611eb0565b602082019050919050565b60006116ce601183611b70565b91506116d982611ed9565b602082019050919050565b60006116f1601f83611b70565b91506116fc82611f02565b602082019050919050565b6000611714600a83611b70565b915061171f82611f2b565b602082019050919050565b6000611737600c83611b70565b915061174282611f54565b602082019050919050565b600061175a601283611b70565b915061176582611f7d565b602082019050919050565b600061177d600083611b65565b915061178882611fa6565b600082019050919050565b60006117a0601383611b70565b91506117ab82611fa9565b602082019050919050565b60006117c3600e83611b70565b91506117ce82611fd2565b602082019050919050565b60006117e6600983611b70565b91506117f182611ffb565b602082019050919050565b61180581611cad565b82525050565b61181c61181782611cad565b611d86565b82525050565b600061182e8288611577565b60148201915061183e8287611577565b60148201915061184e828661180b565b60208201915061185e828561180b565b60208201915061186e828461180b565b6020820191508190509695505050505050565b600061188c82611770565b9150819050919050565b60006020820190506118ab600083018461159d565b92915050565b60006040820190506118c6600083018561159d565b6118d36020830184611568565b9392505050565b600060c0820190506118ef600083018a61159d565b6118fc6020830189611568565b61190960408301886117fc565b61191660608301876117fc565b61192360808301866117fc565b81810360a08301526119368184866115ac565b905098975050505050505050565b600060e082019050611959600083018a61159d565b818103602083015261196b81896115d9565b905061197a6040830188611568565b61198760608301876117fc565b61199460808301866117fc565b6119a160a08301856117fc565b6119ae60c083018461158e565b98975050505050505050565b600060208201905081810360008301526119d381611612565b9050919050565b600060208201905081810360008301526119f381611635565b9050919050565b60006020820190508181036000830152611a1381611658565b9050919050565b60006020820190508181036000830152611a338161167b565b9050919050565b60006020820190508181036000830152611a538161169e565b9050919050565b60006020820190508181036000830152611a73816116c1565b9050919050565b60006020820190508181036000830152611a93816116e4565b9050919050565b60006020820190508181036000830152611ab381611707565b9050919050565b60006020820190508181036000830152611ad38161172a565b9050919050565b60006020820190508181036000830152611af38161174d565b9050919050565b60006020820190508181036000830152611b1381611793565b9050919050565b60006020820190508181036000830152611b33816117b6565b9050919050565b60006020820190508181036000830152611b53816117d9565b9050919050565b600081519050919050565b600081905092915050565b600082825260208201905092915050565b6000611b8c82611cad565b9150611b9783611cad565b9250827fffffffffffffffffffffffffffffffffffffffffffffffffffffffffffffffff03821115611bcc57611bcb611d90565b5b828201905092915050565b6000611be282611cad565b9150611bed83611cad565b9250817fffffffffffffffffffffffffffffffffffffffffffffffffffffffffffffffff0483118215151615611c2657611c25611d90565b5b828202905092915050565b6000611c3c82611cad565b9150611c4783611cad565b925082821015611c5a57611c59611d90565b5b828203905092915050565b6000611c7082611c8d565b9050919050565b60008115159050919050565b6000819050919050565b600073ffffffffffffffffffffffffffffffffffffffff82169050919050565b6000819050919050565b600060ff82169050919050565b82818337600083830152505050565b60005b83811015611cf1578082015181840152602081019050611cd6565b83811115611d00576000848401525b50505050565b60006002820490506001821680611d1e57607f821691505b60208210811415611d3257611d31611dbf565b5b50919050565b6000611d4382611cb7565b915060ff821415611d5757611d56611d90565b5b600182019050919050565b6000611d6d82611d74565b9050919050565b6000611d7f82611dff565b9050919050565b6000819050919050565b7f4e487b7100000000000000000000000000000000000000000000000000000000600052601160045260246000fd5b7f4e487b7100000000000000000000000000000000000000000000000000000000600052602260045260246000fd5b6000601f19601f8301169050919050565b60008160601b9050919050565b7f414c524541445920434c41494d45440000000000000000000000000000000000600082015250565b7f414c524541445920524547495354455245440000000000000000000000000000600082015250565b7f414c52454144592050414944204f555400000000000000000000000000000000600082015250565b7f4661696c656420746f2073656e64204574686572000000000000000000000000600082015250565b7f414c52454144592048415050454e454400000000000000000000000000000000600082015250565b7f414c524541445920434f4e4649524d4544000000000000000000000000000000600082015250565b7f54686973206576656e7420686173207265616368656420636170616369747900600082015250565b7f4e4f5420454e4f55474800000000000000000000000000000000000000000000600082015250565b7f414c524541445920504149440000000000000000000000000000000000000000600082015250565b7f4e4f205253565020544f20434f4e4649524d0000000000000000000000000000600082015250565b50565b7f4d555354204245204556454e54204f574e455200000000000000000000000000600082015250565b7f4e4f5420415554484f52495a4544000000000000000000000000000000000000600082015250565b7f544f4f204541524c590000000000000000000000000000000000000000000000600082015250565b61202d81611c65565b811461203857600080fd5b50565b61204481611c83565b811461204f57600080fd5b50565b61205b81611cad565b811461206657600080fd5b5056fea2646970667358221220d3b6f4f680b620ef838f82ab194727cb24633033feb1943e8e7c845fb94eb3d764736f6c63430008040033",
  "devdoc": {
    "kind": "dev",
    "methods": {},
    "version": 1
  },
  "userdoc": {
    "kind": "user",
    "methods": {},
    "version": 1
  },
  "storageLayout": {
    "storage": [
      {
        "astId": 57,
        "contract": "contracts/Web3RSVP.sol:Web3RSVP",
        "label": "idToEvent",
        "offset": 0,
        "slot": "0",
        "type": "t_mapping(t_bytes32,t_struct(CreateEvent)52_storage)"
      }
    ],
    "types": {
      "t_address": {
        "encoding": "inplace",
        "label": "address",
        "numberOfBytes": "20"
      },
      "t_array(t_address)dyn_storage": {
        "base": "t_address",
        "encoding": "dynamic_array",
        "label": "address[]",
        "numberOfBytes": "32"
      },
      "t_bool": {
        "encoding": "inplace",
        "label": "bool",
        "numberOfBytes": "1"
      },
      "t_bytes32": {
        "encoding": "inplace",
        "label": "bytes32",
        "numberOfBytes": "32"
      },
      "t_mapping(t_bytes32,t_struct(CreateEvent)52_storage)": {
        "encoding": "mapping",
        "key": "t_bytes32",
        "label": "mapping(bytes32 => struct Web3RSVP.CreateEvent)",
        "numberOfBytes": "32",
        "value": "t_struct(CreateEvent)52_storage"
      },
      "t_string_storage": {
        "encoding": "bytes",
        "label": "string",
        "numberOfBytes": "32"
      },
      "t_struct(CreateEvent)52_storage": {
        "encoding": "inplace",
        "label": "struct Web3RSVP.CreateEvent",
        "members": [
          {
            "astId": 33,
            "contract": "contracts/Web3RSVP.sol:Web3RSVP",
            "label": "eventId",
            "offset": 0,
            "slot": "0",
            "type": "t_bytes32"
          },
          {
            "astId": 35,
            "contract": "contracts/Web3RSVP.sol:Web3RSVP",
            "label": "eventDataCID",
            "offset": 0,
            "slot": "1",
            "type": "t_string_storage"
          },
          {
            "astId": 37,
            "contract": "contracts/Web3RSVP.sol:Web3RSVP",
            "label": "eventOwner",
            "offset": 0,
            "slot": "2",
            "type": "t_address"
          },
          {
            "astId": 39,
            "contract": "contracts/Web3RSVP.sol:Web3RSVP",
            "label": "eventTimestamp",
            "offset": 0,
            "slot": "3",
            "type": "t_uint256"
          },
          {
            "astId": 41,
            "contract": "contracts/Web3RSVP.sol:Web3RSVP",
            "label": "deposit",
            "offset": 0,
            "slot": "4",
            "type": "t_uint256"
          },
          {
            "astId": 43,
            "contract": "contracts/Web3RSVP.sol:Web3RSVP",
            "label": "maxCapacity",
            "offset": 0,
            "slot": "5",
            "type": "t_uint256"
          },
          {
            "astId": 46,
            "contract": "contracts/Web3RSVP.sol:Web3RSVP",
            "label": "confirmedRSVPs",
            "offset": 0,
            "slot": "6",
            "type": "t_array(t_address)dyn_storage"
          },
          {
            "astId": 49,
            "contract": "contracts/Web3RSVP.sol:Web3RSVP",
            "label": "claimedRSVPs",
            "offset": 0,
            "slot": "7",
            "type": "t_array(t_address)dyn_storage"
          },
          {
            "astId": 51,
            "contract": "contracts/Web3RSVP.sol:Web3RSVP",
            "label": "paidOut",
            "offset": 0,
            "slot": "8",
            "type": "t_bool"
          }
        ],
        "numberOfBytes": "288"
      },
      "t_uint256": {
        "encoding": "inplace",
        "label": "uint256",
        "numberOfBytes": "32"
      }
    }
  }
}